{"abi":[{"type":"constructor","inputs":[],"stateMutability":"nonpayable"},{"type":"function","name":"getReputation","inputs":[{"name":"agentId","type":"string","internalType":"string"}],"outputs":[{"name":"score","type":"uint256","internalType":"uint256"},{"name":"totalTasks","type":"uint256","internalType":"uint256"},{"name":"successfulTasks","type":"uint256","internalType":"uint256"},{"name":"totalVolumeUsd","type":"uint256","internalType":"uint256"}],"stateMutability":"view"},{"type":"function","name":"owner","inputs":[],"outputs":[{"name":"","type":"address","internalType":"address"}],"stateMutability":"view"},{"type":"function","name":"recordExecution","inputs":[{"name":"agentId","type":"string","internalType":"string"},{"name":"success","type":"bool","internalType":"bool"},{"name":"taskVolumeUsd","type":"uint256","internalType":"uint256"}],"outputs":[],"stateMutability":"nonpayable"},{"type":"function","name":"setUpdater","inputs":[{"name":"_updater","type":"address","internalType":"address"}],"outputs":[],"stateMutability":"nonpayable"},{"type":"function","name":"updater","inputs":[],"outputs":[{"name":"","type":"address","internalType":"address"}],"stateMutability":"view"},{"type":"event","name":"ReputationUpdated","inputs":[{"name":"agentId","type":"string","indexed":true,"internalType":"string"},{"name":"newScore","type":"uint256","indexed":false,"internalType":"uint256"},{"name":"totalTasks","type":"uint256","indexed":false,"internalType":"uint256"},{"name":"successfulTasks","type":"uint256","indexed":false,"internalType":"uint256"}],"anonymous":false}],"bytecode":{"object":"0x6080604052348015600e575f5ffd5b50335f5f6101000a81548173ffffffffffffffffffffffffffffffffffffffff021916908373ffffffffffffffffffffffffffffffffffffffff1602179055506109d38061005b5f395ff3fe608060405234801561000f575f5ffd5b5060043610610055575f3560e01c80633d1103f4146100595780636a726bad1461008c5780638da5cb5b146100a85780639d54f419146100c6578063df034cd0146100e2575b5f5ffd5b610073600480360381019061006e9190610513565b610100565b6040516100839493929190610576565b60405180910390f35b6100a660048036038101906100a19190610618565b610197565b005b6100b0610390565b6040516100bd91906106c8565b60405180910390f35b6100e060048036038101906100db919061070b565b6103b4565b005b6100ea610485565b6040516100f791906106c8565b60405180910390f35b5f5f5f5f5f60028787604051610117929190610772565b90815260200160405180910390206040518060800160405290815f8201548152602001600182015481526020016002820154815260200160038201548152505090505f5f82602001511461016e57815f0151610172565b6123285b9050808260200151836040015184606001519550955095509550505092959194509250565b5f5f9054906101000a900473ffffffffffffffffffffffffffffffffffffffff1673ffffffffffffffffffffffffffffffffffffffff163373ffffffffffffffffffffffffffffffffffffffff16148061023d575060015f9054906101000a900473ffffffffffffffffffffffffffffffffffffffff1673ffffffffffffffffffffffffffffffffffffffff163373ffffffffffffffffffffffffffffffffffffffff16145b61027c576040517f08c379a0000000000000000000000000000000000000000000000000000000008152600401610273906107e4565b60405180910390fd5b5f6002858560405161028f929190610772565b908152602001604051809103902090506001816001015f8282546102b3919061082f565b9250508190555082156102dc576001816002015f8282546102d4919061082f565b925050819055505b5f8160010154111561031157806001015461271082600201546102ff9190610862565b61030991906108d0565b815f01819055505b81816003015f828254610324919061082f565b92505081905550848460405161033b929190610772565b60405180910390207f5ef1d0e18571483a7be20ef1277d1d0b481301462c2ad3df3f728ec04afed382825f01548360010154846002015460405161038193929190610900565b60405180910390a25050505050565b5f5f9054906101000a900473ffffffffffffffffffffffffffffffffffffffff1681565b5f5f9054906101000a900473ffffffffffffffffffffffffffffffffffffffff1673ffffffffffffffffffffffffffffffffffffffff163373ffffffffffffffffffffffffffffffffffffffff1614610442576040517f08c379a00000000000000000000000000000000000000000000000000000000081526004016104399061097f565b60405180910390fd5b8060015f6101000a81548173ffffffffffffffffffffffffffffffffffffffff021916908373ffffffffffffffffffffffffffffffffffffffff16021790555050565b60015f9054906101000a900473ffffffffffffffffffffffffffffffffffffffff1681565b5f5ffd5b5f5ffd5b5f5ffd5b5f5ffd5b5f5ffd5b5f5f83601f8401126104d3576104d26104b2565b5b8235905067ffffffffffffffff8111156104f0576104ef6104b6565b5b60208301915083600182028301111561050c5761050b6104ba565b5b9250929050565b5f5f60208385031215610529576105286104aa565b5b5f83013567ffffffffffffffff811115610546576105456104ae565b5b610552858286016104be565b92509250509250929050565b5f819050919050565b6105708161055e565b82525050565b5f6080820190506105895f830187610567565b6105966020830186610567565b6105a36040830185610567565b6105b06060830184610567565b95945050505050565b5f8115159050919050565b6105cd816105b9565b81146105d7575f5ffd5b50565b5f813590506105e8816105c4565b92915050565b6105f78161055e565b8114610601575f5ffd5b50565b5f81359050610612816105ee565b92915050565b5f5f5f5f606085870312156106305761062f6104aa565b5b5f85013567ffffffffffffffff81111561064d5761064c6104ae565b5b610659878288016104be565b9450945050602061066c878288016105da565b925050604061067d87828801610604565b91505092959194509250565b5f73ffffffffffffffffffffffffffffffffffffffff82169050919050565b5f6106b282610689565b9050919050565b6106c2816106a8565b82525050565b5f6020820190506106db5f8301846106b9565b92915050565b6106ea816106a8565b81146106f4575f5ffd5b50565b5f81359050610705816106e1565b92915050565b5f602082840312156107205761071f6104aa565b5b5f61072d848285016106f7565b91505092915050565b5f81905092915050565b828183375f83830152505050565b5f6107598385610736565b9350610766838584610740565b82840190509392505050565b5f61077e82848661074e565b91508190509392505050565b5f82825260208201905092915050565b7f4e6f7420617574686f72697a65640000000000000000000000000000000000005f82015250565b5f6107ce600e8361078a565b91506107d98261079a565b602082019050919050565b5f6020820190508181035f8301526107fb816107c2565b9050919050565b7f4e487b71000000000000000000000000000000000000000000000000000000005f52601160045260245ffd5b5f6108398261055e565b91506108448361055e565b925082820190508082111561085c5761085b610802565b5b92915050565b5f61086c8261055e565b91506108778361055e565b92508282026108858161055e565b9150828204841483151761089c5761089b610802565b5b5092915050565b7f4e487b71000000000000000000000000000000000000000000000000000000005f52601260045260245ffd5b5f6108da8261055e565b91506108e58361055e565b9250826108f5576108f46108a3565b5b828204905092915050565b5f6060820190506109135f830186610567565b6109206020830185610567565b61092d6040830184610567565b949350505050565b7f4f6e6c79206f776e65722063616e2063616c6c000000000000000000000000005f82015250565b5f61096960138361078a565b915061097482610935565b602082019050919050565b5f6020820190508181035f8301526109968161095d565b905091905056fea2646970667358221220a1939f25f0bde592f25d8b5537b2825775a0e1463c52160f67aca72c1529bbe764736f6c63430008230033","linkReferences":{}},"methodIdentifiers":{"getReputation(string)":"3d1103f4","owner()":"8da5cb5b","recordExecution(string,bool,uint256)":"6a726bad","setUpdater(address)":"9d54f419","updater()":"df034cd0"},"id":3}