{"abi":[{"type":"constructor","inputs":[],"stateMutability":"nonpayable"},{"type":"function","name":"getAgent","inputs":[{"name":"id","type":"string","internalType":"string"}],"outputs":[{"name":"agentId","type":"string","internalType":"string"},{"name":"walletAddress","type":"address","internalType":"address"},{"name":"endpoint","type":"string","internalType":"string"},{"name":"active","type":"bool","internalType":"bool"},{"name":"exists","type":"bool","internalType":"bool"}],"stateMutability":"view"},{"type":"function","name":"getAgentCount","inputs":[],"outputs":[{"name":"","type":"uint256","internalType":"uint256"}],"stateMutability":"view"},{"type":"function","name":"getAgentIdAt","inputs":[{"name":"index","type":"uint256","internalType":"uint256"}],"outputs":[{"name":"","type":"string","internalType":"string"}],"stateMutability":"view"},{"type":"function","name":"owner","inputs":[],"outputs":[{"name":"","type":"address","internalType":"address"}],"stateMutability":"view"},{"type":"function","name":"registerAgent","inputs":[{"name":"id","type":"string","internalType":"string"},{"name":"walletAddress","type":"address","internalType":"address"},{"name":"endpoint","type":"string","internalType":"string"}],"outputs":[],"stateMutability":"nonpayable"},{"type":"function","name":"updateAgent","inputs":[{"name":"id","type":"string","internalType":"string"},{"name":"walletAddress","type":"address","internalType":"address"},{"name":"endpoint","type":"string","internalType":"string"},{"name":"active","type":"bool","internalType":"bool"}],"outputs":[],"stateMutability":"nonpayable"},{"type":"event","name":"AgentRegistered","inputs":[{"name":"id","type":"string","indexed":true,"internalType":"string"},{"name":"walletAddress","type":"address","indexed":true,"internalType":"address"},{"name":"endpoint","type":"string","indexed":false,"internalType":"string"}],"anonymous":false},{"type":"event","name":"AgentUpdated","inputs":[{"name":"id","type":"string","indexed":true,"internalType":"string"},{"name":"walletAddress","type":"address","indexed":true,"internalType":"address"},{"name":"active","type":"bool","indexed":false,"internalType":"bool"}],"anonymous":false}],"bytecode":{"object":"0x6080604052348015600e575f5ffd5b50335f5f6101000a81548173ffffffffffffffffffffffffffffffffffffffff021916908373ffffffffffffffffffffffffffffffffffffffff1602179055506115ee8061005b5f395ff3fe608060405234801561000f575f5ffd5b5060043610610060575f3560e01c80633a059fa3146100645780636139372314610080578063794464e9146100b05780638da5cb5b146100e457806391cab63e14610102578063a925a0ac14610120575b5f5ffd5b61007e60048036038101906100799190610b87565b61013c565b005b61009a60048036038101906100959190610c4b565b6104ee565b6040516100a79190610ce6565b60405180910390f35b6100ca60048036038101906100c59190610d06565b6105e1565b6040516100db959493929190610d7a565b60405180910390f35b6100ec6107ec565b6040516100f99190610dd9565b60405180910390f35b61010a610810565b6040516101179190610e01565b60405180910390f35b61013a60048036038101906101359190610e44565b61081c565b005b5f5f9054906101000a900473ffffffffffffffffffffffffffffffffffffffff1673ffffffffffffffffffffffffffffffffffffffff163373ffffffffffffffffffffffffffffffffffffffff16146101ca576040517f08c379a00000000000000000000000000000000000000000000000000000000081526004016101c190610f31565b60405180910390fd5b5f73ffffffffffffffffffffffffffffffffffffffff168373ffffffffffffffffffffffffffffffffffffffff1603610238576040517f08c379a000000000000000000000000000000000000000000000000000000000815260040161022f90610f99565b60405180910390fd5b6001858560405161024a929190610ff3565b908152602001604051809103902060030160019054906101000a900460ff16156102a9576040517f08c379a00000000000000000000000000000000000000000000000000000000081526004016102a090611055565b60405180910390fd5b6040518060a0016040528086868080601f0160208091040260200160405190810160405280939291908181526020018383808284375f81840152601f19601f8201169050808301925050505050505081526020018473ffffffffffffffffffffffffffffffffffffffff16815260200183838080601f0160208091040260200160405190810160405280939291908181526020018383808284375f81840152601f19601f8201169050808301925050505050505081526020016001151581526020016001151581525060018686604051610384929190610ff3565b90815260200160405180910390205f820151815f0190816103a591906112ae565b506020820151816001015f6101000a81548173ffffffffffffffffffffffffffffffffffffffff021916908373ffffffffffffffffffffffffffffffffffffffff160217905550604082015181600201908161040191906112ae565b506060820151816003015f6101000a81548160ff02191690831515021790555060808201518160030160016101000a81548160ff0219169083151502179055509050506002858590918060018154018082558091505060019003905f5260205f20015f90919290919290919290919250918261047e929190611387565b508273ffffffffffffffffffffffffffffffffffffffff1685856040516104a6929190610ff3565b60405180910390207fc43f3529413bf4994b5fe9d3ce632ca9fb8a6bb4e9c0662994bb7994f1f5b5e884846040516104df929190611480565b60405180910390a35050505050565b60606002805490508210610537576040517f08c379a000000000000000000000000000000000000000000000000000000000815260040161052e906114ec565b60405180910390fd5b6002828154811061054b5761054a61150a565b5b905f5260205f2001805461055e906110cd565b80601f016020809104026020016040519081016040528092919081815260200182805461058a906110cd565b80156105d55780601f106105ac576101008083540402835291602001916105d5565b820191905f5260205f20905b8154815290600101906020018083116105b857829003601f168201915b50505050509050919050565b60605f60605f5f5f600188886040516105fb929190610ff3565b90815260200160405180910390206040518060a00160405290815f82018054610623906110cd565b80601f016020809104026020016040519081016040528092919081815260200182805461064f906110cd565b801561069a5780601f106106715761010080835404028352916020019161069a565b820191905f5260205f20905b81548152906001019060200180831161067d57829003601f168201915b50505050508152602001600182015f9054906101000a900473ffffffffffffffffffffffffffffffffffffffff1673ffffffffffffffffffffffffffffffffffffffff1673ffffffffffffffffffffffffffffffffffffffff168152602001600282018054610708906110cd565b80601f0160208091040260200160405190810160405280929190818152602001828054610734906110cd565b801561077f5780601f106107565761010080835404028352916020019161077f565b820191905f5260205f20905b81548152906001019060200180831161076257829003601f168201915b50505050508152602001600382015f9054906101000a900460ff161515151581526020016003820160019054906101000a900460ff1615151515815250509050805f0151816020015182604001518360600151846080015195509550955095509550509295509295909350565b5f5f9054906101000a900473ffffffffffffffffffffffffffffffffffffffff1681565b5f600280549050905090565b5f5f9054906101000a900473ffffffffffffffffffffffffffffffffffffffff1673ffffffffffffffffffffffffffffffffffffffff163373ffffffffffffffffffffffffffffffffffffffff16146108aa576040517f08c379a00000000000000000000000000000000000000000000000000000000081526004016108a190610f31565b60405180910390fd5b600186866040516108bc929190610ff3565b908152602001604051809103902060030160019054906101000a900460ff1661091a576040517f08c379a000000000000000000000000000000000000000000000000000000000815260040161091190611581565b60405180910390fd5b5f73ffffffffffffffffffffffffffffffffffffffff168473ffffffffffffffffffffffffffffffffffffffff1603610988576040517f08c379a000000000000000000000000000000000000000000000000000000000815260040161097f90610f99565b60405180910390fd5b836001878760405161099b929190610ff3565b90815260200160405180910390206001015f6101000a81548173ffffffffffffffffffffffffffffffffffffffff021916908373ffffffffffffffffffffffffffffffffffffffff1602179055508282600188886040516109fd929190610ff3565b90815260200160405180910390206002019182610a1b929190611387565b508060018787604051610a2f929190610ff3565b90815260200160405180910390206003015f6101000a81548160ff0219169083151502179055508373ffffffffffffffffffffffffffffffffffffffff168686604051610a7d929190610ff3565b60405180910390207fb186d550d0d04964e4987ba5da415c0da83d5b23e0971b6c6235570c895eac1083604051610ab4919061159f565b60405180910390a3505050505050565b5f5ffd5b5f5ffd5b5f5ffd5b5f5ffd5b5f5ffd5b5f5f83601f840112610aed57610aec610acc565b5b8235905067ffffffffffffffff811115610b0a57610b09610ad0565b5b602083019150836001820283011115610b2657610b25610ad4565b5b9250929050565b5f73ffffffffffffffffffffffffffffffffffffffff82169050919050565b5f610b5682610b2d565b9050919050565b610b6681610b4c565b8114610b70575f5ffd5b50565b5f81359050610b8181610b5d565b92915050565b5f5f5f5f5f60608688031215610ba057610b9f610ac4565b5b5f86013567ffffffffffffffff811115610bbd57610bbc610ac8565b5b610bc988828901610ad8565b95509550506020610bdc88828901610b73565b935050604086013567ffffffffffffffff811115610bfd57610bfc610ac8565b5b610c0988828901610ad8565b92509250509295509295909350565b5f819050919050565b610c2a81610c18565b8114610c34575f5ffd5b50565b5f81359050610c4581610c21565b92915050565b5f60208284031215610c6057610c5f610ac4565b5b5f610c6d84828501610c37565b91505092915050565b5f81519050919050565b5f82825260208201905092915050565b8281835e5f83830152505050565b5f601f19601f8301169050919050565b5f610cb882610c76565b610cc28185610c80565b9350610cd2818560208601610c90565b610cdb81610c9e565b840191505092915050565b5f6020820190508181035f830152610cfe8184610cae565b905092915050565b5f5f60208385031215610d1c57610d1b610ac4565b5b5f83013567ffffffffffffffff811115610d3957610d38610ac8565b5b610d4585828601610ad8565b92509250509250929050565b610d5a81610b4c565b82525050565b5f8115159050919050565b610d7481610d60565b82525050565b5f60a0820190508181035f830152610d928188610cae565b9050610da16020830187610d51565b8181036040830152610db38186610cae565b9050610dc26060830185610d6b565b610dcf6080830184610d6b565b9695505050505050565b5f602082019050610dec5f830184610d51565b92915050565b610dfb81610c18565b82525050565b5f602082019050610e145f830184610df2565b92915050565b610e2381610d60565b8114610e2d575f5ffd5b50565b5f81359050610e3e81610e1a565b92915050565b5f5f5f5f5f5f60808789031215610e5e57610e5d610ac4565b5b5f87013567ffffffffffffffff811115610e7b57610e7a610ac8565b5b610e8789828a01610ad8565b96509650506020610e9a89828a01610b73565b945050604087013567ffffffffffffffff811115610ebb57610eba610ac8565b5b610ec789828a01610ad8565b93509350506060610eda89828a01610e30565b9150509295509295509295565b7f4f6e6c79206f776e65722063616e2063616c6c000000000000000000000000005f82015250565b5f610f1b601383610c80565b9150610f2682610ee7565b602082019050919050565b5f6020820190508181035f830152610f4881610f0f565b9050919050565b7f496e76616c6964206164647265737300000000000000000000000000000000005f82015250565b5f610f83600f83610c80565b9150610f8e82610f4f565b602082019050919050565b5f6020820190508181035f830152610fb081610f77565b9050919050565b5f81905092915050565b828183375f83830152505050565b5f610fda8385610fb7565b9350610fe7838584610fc1565b82840190509392505050565b5f610fff828486610fcf565b91508190509392505050565b7f4167656e7420616c7265616479206578697374730000000000000000000000005f82015250565b5f61103f601483610c80565b915061104a8261100b565b602082019050919050565b5f6020820190508181035f83015261106c81611033565b9050919050565b7f4e487b71000000000000000000000000000000000000000000000000000000005f52604160045260245ffd5b7f4e487b71000000000000000000000000000000000000000000000000000000005f52602260045260245ffd5b5f60028204905060018216806110e457607f821691505b6020821081036110f7576110f66110a0565b5b50919050565b5f819050815f5260205f209050919050565b5f6020601f8301049050919050565b5f82821b905092915050565b5f600883026111597fffffffffffffffffffffffffffffffffffffffffffffffffffffffffffffffff8261111e565b611163868361111e565b95508019841693508086168417925050509392505050565b5f819050919050565b5f61119e61119961119484610c18565b61117b565b610c18565b9050919050565b5f819050919050565b6111b783611184565b6111cb6111c3826111a5565b84845461112a565b825550505050565b5f5f905090565b6111e26111d3565b6111ed8184846111ae565b505050565b5f5b82811015611213576112085f8284016111da565b6001810190506111f4565b505050565b601f821115611266578282111561126557611232816110fd565b61123b8361110f565b6112448561110f565b6020861015611251575f90505b808301611260828403826111f2565b505050505b5b505050565b5f82821c905092915050565b5f6112865f198460080261126b565b1980831691505092915050565b5f61129e8383611277565b9150826002028217905092915050565b6112b782610c76565b67ffffffffffffffff8111156112d0576112cf611073565b5b6112da82546110cd565b6112e5828285611218565b5f60209050601f831160018114611316575f8415611304578287015190505b61130e8582611293565b865550611375565b601f198416611324866110fd565b5f5b8281101561134b57848901518255600182019150602085019450602081019050611326565b868310156113685784890151611364601f891682611277565b8355505b6001600288020188555050505b505050505050565b5f82905092915050565b611391838361137d565b67ffffffffffffffff8111156113aa576113a9611073565b5b6113b482546110cd565b6113bf828285611218565b5f601f8311600181146113ec575f84156113da578287013590505b6113e48582611293565b86555061144b565b601f1984166113fa866110fd565b5f5b82811015611421578489013582556001820191506020850194506020810190506113fc565b8683101561143e578489013561143a601f891682611277565b8355505b6001600288020188555050505b50505050505050565b5f61145f8385610c80565b935061146c838584610fc1565b61147583610c9e565b840190509392505050565b5f6020820190508181035f830152611499818486611454565b90509392505050565b7f496e646578206f7574206f6620626f756e6473000000000000000000000000005f82015250565b5f6114d6601383610c80565b91506114e1826114a2565b602082019050919050565b5f6020820190508181035f830152611503816114ca565b9050919050565b7f4e487b71000000000000000000000000000000000000000000000000000000005f52603260045260245ffd5b7f4167656e7420646f6573206e6f742065786973740000000000000000000000005f82015250565b5f61156b601483610c80565b915061157682611537565b602082019050919050565b5f6020820190508181035f8301526115988161155f565b9050919050565b5f6020820190506115b25f830184610d6b565b9291505056fea2646970667358221220feabeec944453d0a0c60280d9363f92bf450dcd1be0b30afd7b1444ca006842864736f6c63430008230033","linkReferences":{}},"methodIdentifiers":{"getAgent(string)":"794464e9","getAgentCount()":"91cab63e","getAgentIdAt(uint256)":"61393723","owner()":"8da5cb5b","registerAgent(string,address,string)":"3a059fa3","updateAgent(string,address,string,bool)":"a925a0ac"},"id":0}