{"abi":[{"type":"constructor","inputs":[{"name":"_treasury","type":"address","internalType":"address"},{"name":"_feePercentageBps","type":"uint256","internalType":"uint256"}],"stateMutability":"nonpayable"},{"type":"function","name":"feePercentageBps","inputs":[],"outputs":[{"name":"","type":"uint256","internalType":"uint256"}],"stateMutability":"view"},{"type":"function","name":"owner","inputs":[],"outputs":[{"name":"","type":"address","internalType":"address"}],"stateMutability":"view"},{"type":"function","name":"setFeePercentageBps","inputs":[{"name":"_feePercentageBps","type":"uint256","internalType":"uint256"}],"outputs":[],"stateMutability":"nonpayable"},{"type":"function","name":"setTreasury","inputs":[{"name":"_treasury","type":"address","internalType":"address"}],"outputs":[],"stateMutability":"nonpayable"},{"type":"function","name":"settlePayment","inputs":[{"name":"taskId","type":"bytes32","internalType":"bytes32"},{"name":"agentWallet","type":"address","internalType":"address payable"}],"outputs":[],"stateMutability":"payable"},{"type":"function","name":"treasury","inputs":[],"outputs":[{"name":"","type":"address","internalType":"address"}],"stateMutability":"view"},{"type":"event","name":"FeesSettled","inputs":[{"name":"taskId","type":"bytes32","indexed":true,"internalType":"bytes32"},{"name":"agentWallet","type":"address","indexed":true,"internalType":"address"},{"name":"totalAmount","type":"uint256","indexed":false,"internalType":"uint256"},{"name":"agentAmount","type":"uint256","indexed":false,"internalType":"uint256"},{"name":"platformFee","type":"uint256","indexed":false,"internalType":"uint256"}],"anonymous":false}],"bytecode":{"object":"0x608060405234801561000f575f5ffd5b50604051610d21380380610d218339818101604052810190610031919061014f565b335f5f6101000a81548173ffffffffffffffffffffffffffffffffffffffff021916908373ffffffffffffffffffffffffffffffffffffffff1602179055508160015f6101000a81548173ffffffffffffffffffffffffffffffffffffffff021916908373ffffffffffffffffffffffffffffffffffffffff16021790555080600281905550505061018d565b5f5ffd5b5f73ffffffffffffffffffffffffffffffffffffffff82169050919050565b5f6100eb826100c2565b9050919050565b6100fb816100e1565b8114610105575f5ffd5b50565b5f81519050610116816100f2565b92915050565b5f819050919050565b61012e8161011c565b8114610138575f5ffd5b50565b5f8151905061014981610125565b92915050565b5f5f60408385031215610165576101646100be565b5b5f61017285828601610108565b92505060206101838582860161013b565b9150509250929050565b610b878061019a5f395ff3fe608060405260043610610054575f3560e01c806361d027b3146100585780638da5cb5b146100825780639044943c146100ac578063eaa32beb146100d6578063f0f44260146100fe578063f71ca2ce14610126575b5f5ffd5b348015610063575f5ffd5b5061006c610142565b6040516100799190610662565b60405180910390f35b34801561008d575f5ffd5b50610096610167565b6040516100a39190610662565b60405180910390f35b3480156100b7575f5ffd5b506100c061018b565b6040516100cd9190610693565b60405180910390f35b3480156100e1575f5ffd5b506100fc60048036038101906100f791906106da565b610191565b005b348015610109575f5ffd5b50610124600480360381019061011f919061072f565b61026e565b005b610140600480360381019061013b91906107c8565b6103ad565b005b60015f9054906101000a900473ffffffffffffffffffffffffffffffffffffffff1681565b5f5f9054906101000a900473ffffffffffffffffffffffffffffffffffffffff1681565b60025481565b5f5f9054906101000a900473ffffffffffffffffffffffffffffffffffffffff1673ffffffffffffffffffffffffffffffffffffffff163373ffffffffffffffffffffffffffffffffffffffff161461021f576040517f08c379a000000000000000000000000000000000000000000000000000000000815260040161021690610860565b60405180910390fd5b6101f4811115610264576040517f08c379a000000000000000000000000000000000000000000000000000000000815260040161025b906108c8565b60405180910390fd5b8060028190555050565b5f5f9054906101000a900473ffffffffffffffffffffffffffffffffffffffff1673ffffffffffffffffffffffffffffffffffffffff163373ffffffffffffffffffffffffffffffffffffffff16146102fc576040517f08c379a00000000000000000000000000000000000000000000000000000000081526004016102f390610860565b60405180910390fd5b5f73ffffffffffffffffffffffffffffffffffffffff168173ffffffffffffffffffffffffffffffffffffffff160361036a576040517f08c379a000000000000000000000000000000000000000000000000000000000815260040161036190610930565b60405180910390fd5b8060015f6101000a81548173ffffffffffffffffffffffffffffffffffffffff021916908373ffffffffffffffffffffffffffffffffffffffff16021790555050565b5f5f9054906101000a900473ffffffffffffffffffffffffffffffffffffffff1673ffffffffffffffffffffffffffffffffffffffff163373ffffffffffffffffffffffffffffffffffffffff161461043b576040517f08c379a000000000000000000000000000000000000000000000000000000000815260040161043290610860565b60405180910390fd5b5f341161047d576040517f08c379a000000000000000000000000000000000000000000000000000000000815260040161047490610998565b60405180910390fd5b5f73ffffffffffffffffffffffffffffffffffffffff168173ffffffffffffffffffffffffffffffffffffffff16036104eb576040517f08c379a00000000000000000000000000000000000000000000000000000000081526004016104e290610a00565b60405180910390fd5b5f612710600254346104fd9190610a4b565b6105079190610ab9565b90505f81346105169190610ae9565b90505f8211156105865760015f9054906101000a900473ffffffffffffffffffffffffffffffffffffffff1673ffffffffffffffffffffffffffffffffffffffff166108fc8390811502906040515f60405180830381858888f19350505050158015610584573d5f5f3e3d5ffd5b505b8273ffffffffffffffffffffffffffffffffffffffff166108fc8290811502906040515f60405180830381858888f193505050501580156105c9573d5f5f3e3d5ffd5b508273ffffffffffffffffffffffffffffffffffffffff16847fdff2b08b516a57abcab4a2b1272b8b49e8d518eebf94ce378b3256a8e472d17734848660405161061593929190610b1c565b60405180910390a350505050565b5f73ffffffffffffffffffffffffffffffffffffffff82169050919050565b5f61064c82610623565b9050919050565b61065c81610642565b82525050565b5f6020820190506106755f830184610653565b92915050565b5f819050919050565b61068d8161067b565b82525050565b5f6020820190506106a65f830184610684565b92915050565b5f5ffd5b6106b98161067b565b81146106c3575f5ffd5b50565b5f813590506106d4816106b0565b92915050565b5f602082840312156106ef576106ee6106ac565b5b5f6106fc848285016106c6565b91505092915050565b61070e81610642565b8114610718575f5ffd5b50565b5f8135905061072981610705565b92915050565b5f60208284031215610744576107436106ac565b5b5f6107518482850161071b565b91505092915050565b5f819050919050565b61076c8161075a565b8114610776575f5ffd5b50565b5f8135905061078781610763565b92915050565b5f61079782610623565b9050919050565b6107a78161078d565b81146107b1575f5ffd5b50565b5f813590506107c28161079e565b92915050565b5f5f604083850312156107de576107dd6106ac565b5b5f6107eb85828601610779565b92505060206107fc858286016107b4565b9150509250929050565b5f82825260208201905092915050565b7f4f6e6c79206f776e65722063616e2063616c6c000000000000000000000000005f82015250565b5f61084a601383610806565b915061085582610816565b602082019050919050565b5f6020820190508181035f8301526108778161083e565b9050919050565b7f46656520636170206174203525000000000000000000000000000000000000005f82015250565b5f6108b2600d83610806565b91506108bd8261087e565b602082019050919050565b5f6020820190508181035f8301526108df816108a6565b9050919050565b7f496e76616c6964206164647265737300000000000000000000000000000000005f82015250565b5f61091a600f83610806565b9150610925826108e6565b602082019050919050565b5f6020820190508181035f8301526109478161090e565b9050919050565b7f4e6f2076616c756520746f20736574746c6500000000000000000000000000005f82015250565b5f610982601283610806565b915061098d8261094e565b602082019050919050565b5f6020820190508181035f8301526109af81610976565b9050919050565b7f496e76616c6964206167656e742077616c6c65740000000000000000000000005f82015250565b5f6109ea601483610806565b91506109f5826109b6565b602082019050919050565b5f6020820190508181035f830152610a17816109de565b9050919050565b7f4e487b71000000000000000000000000000000000000000000000000000000005f52601160045260245ffd5b5f610a558261067b565b9150610a608361067b565b9250828202610a6e8161067b565b91508282048414831517610a8557610a84610a1e565b5b5092915050565b7f4e487b71000000000000000000000000000000000000000000000000000000005f52601260045260245ffd5b5f610ac38261067b565b9150610ace8361067b565b925082610ade57610add610a8c565b5b828204905092915050565b5f610af38261067b565b9150610afe8361067b565b9250828203905081811115610b1657610b15610a1e565b5b92915050565b5f606082019050610b2f5f830186610684565b610b3c6020830185610684565b610b496040830184610684565b94935050505056fea2646970667358221220a988264f39033bda0b5e1238def16218b9eee92259f3bcb849ab3d2995b8810564736f6c63430008230033","linkReferences":{}},"methodIdentifiers":{"feePercentageBps()":"9044943c","owner()":"8da5cb5b","setFeePercentageBps(uint256)":"eaa32beb","setTreasury(address)":"f0f44260","settlePayment(bytes32,address)":"f71ca2ce","treasury()":"61d027b3"},"id":25}