{"abi":[{"type":"constructor","inputs":[],"stateMutability":"nonpayable"},{"type":"fallback","stateMutability":"payable"},{"type":"receive","stateMutability":"payable"},{"type":"function","name":"getBalance","inputs":[],"outputs":[{"name":"","type":"uint256","internalType":"uint256"}],"stateMutability":"view"},{"type":"function","name":"owner","inputs":[],"outputs":[{"name":"","type":"address","internalType":"address"}],"stateMutability":"view"},{"type":"function","name":"withdraw","inputs":[{"name":"amount","type":"uint256","internalType":"uint256"}],"outputs":[],"stateMutability":"nonpayable"},{"type":"event","name":"Deposit","inputs":[{"name":"sender","type":"address","indexed":true,"internalType":"address"},{"name":"amount","type":"uint256","indexed":false,"internalType":"uint256"}],"anonymous":false},{"type":"event","name":"Withdrawal","inputs":[{"name":"recipient","type":"address","indexed":true,"internalType":"address"},{"name":"amount","type":"uint256","indexed":false,"internalType":"uint256"}],"anonymous":false}],"bytecode":{"object":"0x6080604052348015600e575f5ffd5b50335f5f6101000a81548173ffffffffffffffffffffffffffffffffffffffff021916908373ffffffffffffffffffffffffffffffffffffffff1602179055506105218061005b5f395ff3fe608060405260043610610037575f3560e01c806312065fe0146100dc5780632e1a7d4d146101065780638da5cb5b1461012e5761008c565b3661008c573373ffffffffffffffffffffffffffffffffffffffff167fe1fffcc4923d04b559f4d29a8bfc6cda04eb5b0d3c460751c2402c5c5cc9109c346040516100829190610341565b60405180910390a2005b3373ffffffffffffffffffffffffffffffffffffffff167fe1fffcc4923d04b559f4d29a8bfc6cda04eb5b0d3c460751c2402c5c5cc9109c346040516100d29190610341565b60405180910390a2005b3480156100e7575f5ffd5b506100f0610158565b6040516100fd9190610341565b60405180910390f35b348015610111575f5ffd5b5061012c60048036038101906101279190610388565b61015f565b005b348015610139575f5ffd5b50610142610305565b60405161014f91906103f2565b60405180910390f35b5f47905090565b5f5f9054906101000a900473ffffffffffffffffffffffffffffffffffffffff1673ffffffffffffffffffffffffffffffffffffffff163373ffffffffffffffffffffffffffffffffffffffff16146101ed576040517f08c379a00000000000000000000000000000000000000000000000000000000081526004016101e490610465565b60405180910390fd5b47811115610230576040517f08c379a0000000000000000000000000000000000000000000000000000000008152600401610227906104cd565b60405180910390fd5b5f5f9054906101000a900473ffffffffffffffffffffffffffffffffffffffff1673ffffffffffffffffffffffffffffffffffffffff166108fc8290811502906040515f60405180830381858888f19350505050158015610293573d5f5f3e3d5ffd5b505f5f9054906101000a900473ffffffffffffffffffffffffffffffffffffffff1673ffffffffffffffffffffffffffffffffffffffff167f7fcf532c15f0a6db0bd6d0e038bea71d30d808c7d98cb3bf7268a95bf5081b65826040516102fa9190610341565b60405180910390a250565b5f5f9054906101000a900473ffffffffffffffffffffffffffffffffffffffff1681565b5f819050919050565b61033b81610329565b82525050565b5f6020820190506103545f830184610332565b92915050565b5f5ffd5b61036781610329565b8114610371575f5ffd5b50565b5f813590506103828161035e565b92915050565b5f6020828403121561039d5761039c61035a565b5b5f6103aa84828501610374565b91505092915050565b5f73ffffffffffffffffffffffffffffffffffffffff82169050919050565b5f6103dc826103b3565b9050919050565b6103ec816103d2565b82525050565b5f6020820190506104055f8301846103e3565b92915050565b5f82825260208201905092915050565b7f4f6e6c79206f776e65722063616e2063616c6c000000000000000000000000005f82015250565b5f61044f60138361040b565b915061045a8261041b565b602082019050919050565b5f6020820190508181035f83015261047c81610443565b9050919050565b7f496e73756666696369656e742062616c616e63650000000000000000000000005f82015250565b5f6104b760148361040b565b91506104c282610483565b602082019050919050565b5f6020820190508181035f8301526104e4816104ab565b905091905056fea26469706673582212205c6c4e65aa566666d74b426e3c1159f759f908546ba54d5866fd1f9c8b55ebbc64736f6c63430008230033","linkReferences":{}},"methodIdentifiers":{"getBalance()":"12065fe0","owner()":"8da5cb5b","withdraw(uint256)":"2e1a7d4d"},"id":26}