{"abi":[{"type":"constructor","inputs":[{"name":"_reputationContract","type":"address","internalType":"address"}],"stateMutability":"nonpayable"},{"type":"function","name":"createEscrow","inputs":[{"name":"taskId","type":"bytes32","internalType":"bytes32"},{"name":"agentId","type":"string","internalType":"string"},{"name":"timeoutSeconds","type":"uint256","internalType":"uint256"}],"outputs":[],"stateMutability":"payable"},{"type":"function","name":"escrows","inputs":[{"name":"","type":"bytes32","internalType":"bytes32"}],"outputs":[{"name":"depositor","type":"address","internalType":"address"},{"name":"agentId","type":"string","internalType":"string"},{"name":"amount","type":"uint256","internalType":"uint256"},{"name":"lockTime","type":"uint256","internalType":"uint256"},{"name":"timeout","type":"uint256","internalType":"uint256"},{"name":"released","type":"bool","internalType":"bool"},{"name":"refunded","type":"bool","internalType":"bool"},{"name":"exists","type":"bool","internalType":"bool"}],"stateMutability":"view"},{"type":"function","name":"owner","inputs":[],"outputs":[{"name":"","type":"address","internalType":"address"}],"stateMutability":"view"},{"type":"function","name":"refundEscrow","inputs":[{"name":"taskId","type":"bytes32","internalType":"bytes32"}],"outputs":[],"stateMutability":"nonpayable"},{"type":"function","name":"releaseEscrow","inputs":[{"name":"taskId","type":"bytes32","internalType":"bytes32"}],"outputs":[],"stateMutability":"nonpayable"},{"type":"function","name":"reputationContract","inputs":[],"outputs":[{"name":"","type":"address","internalType":"contract Reputation"}],"stateMutability":"view"},{"type":"event","name":"EscrowCreated","inputs":[{"name":"taskId","type":"bytes32","indexed":true,"internalType":"bytes32"},{"name":"depositor","type":"address","indexed":true,"internalType":"address"},{"name":"agentId","type":"string","indexed":false,"internalType":"string"},{"name":"amount","type":"uint256","indexed":false,"internalType":"uint256"},{"name":"timeout","type":"uint256","indexed":false,"internalType":"uint256"}],"anonymous":false},{"type":"event","name":"EscrowRefunded","inputs":[{"name":"taskId","type":"bytes32","indexed":true,"internalType":"bytes32"},{"name":"depositor","type":"address","indexed":true,"internalType":"address"},{"name":"amount","type":"uint256","indexed":false,"internalType":"uint256"}],"anonymous":false},{"type":"event","name":"EscrowReleased","inputs":[{"name":"taskId","type":"bytes32","indexed":true,"internalType":"bytes32"},{"name":"agentId","type":"string","indexed":false,"internalType":"string"},{"name":"amount","type":"uint256","indexed":false,"internalType":"uint256"}],"anonymous":false}],"bytecode":{"object":"0x608060405234801561000f575f5ffd5b506040516118fe3803806118fe83398181016040528101906100319190610114565b335f5f6101000a81548173ffffffffffffffffffffffffffffffffffffffff021916908373ffffffffffffffffffffffffffffffffffffffff1602179055508060015f6101000a81548173ffffffffffffffffffffffffffffffffffffffff021916908373ffffffffffffffffffffffffffffffffffffffff1602179055505061013f565b5f5ffd5b5f73ffffffffffffffffffffffffffffffffffffffff82169050919050565b5f6100e3826100ba565b9050919050565b6100f3816100d9565b81146100fd575f5ffd5b50565b5f8151905061010e816100ea565b92915050565b5f60208284031215610129576101286100b6565b5b5f61013684828501610100565b91505092915050565b6117b28061014c5f395ff3fe608060405260043610610054575f3560e01c80632d83549c1461005857806347aed5081461009b57806387bc1425146100c35780638da5cb5b146100ed578063bf89fc6114610117578063cefc80331461013f575b5f5ffd5b348015610063575f5ffd5b5061007e60048036038101906100799190610bb7565b61015b565b604051610092989796959493929190610cc3565b60405180910390f35b3480156100a6575f5ffd5b506100c160048036038101906100bc9190610bb7565b61026a565b005b3480156100ce575f5ffd5b506100d76105ab565b6040516100e49190610da1565b60405180910390f35b3480156100f8575f5ffd5b506101016105d0565b60405161010e9190610dba565b60405180910390f35b348015610122575f5ffd5b5061013d60048036038101906101389190610bb7565b6105f4565b005b61015960048036038101906101549190610e5e565b6108f8565b005b6002602052805f5260405f205f91509050805f015f9054906101000a900473ffffffffffffffffffffffffffffffffffffffff169080600101805461019f90610efc565b80601f01602080910402602001604051908101604052809291908181526020018280546101cb90610efc565b80156102165780601f106101ed57610100808354040283529160200191610216565b820191905f5260205f20905b8154815290600101906020018083116101f957829003601f168201915b505050505090806002015490806003015490806004015490806005015f9054906101000a900460ff16908060050160019054906101000a900460ff16908060050160029054906101000a900460ff16905088565b5f60025f8381526020019081526020015f2090508060050160029054906101000a900460ff166102cf576040517f08c379a00000000000000000000000000000000000000000000000000000000081526004016102c690610f76565b60405180910390fd5b806005015f9054906101000a900460ff1615610320576040517f08c379a000000000000000000000000000000000000000000000000000000000815260040161031790610fde565b60405180910390fd5b8060050160019054906101000a900460ff1615610372576040517f08c379a000000000000000000000000000000000000000000000000000000000815260040161036990611046565b60405180910390fd5b5f5f9054906101000a900473ffffffffffffffffffffffffffffffffffffffff1673ffffffffffffffffffffffffffffffffffffffff163373ffffffffffffffffffffffffffffffffffffffff1614806103de5750806004015481600301546103db9190611091565b42115b61041d576040517f08c379a000000000000000000000000000000000000000000000000000000000815260040161041490611134565b60405180910390fd5b60018160050160016101000a81548160ff02191690831515021790555060015f9054906101000a900473ffffffffffffffffffffffffffffffffffffffff1673ffffffffffffffffffffffffffffffffffffffff16636a726bad826001015f5f6040518463ffffffff1660e01b815260040161049b9392919061121e565b5f604051808303815f87803b1580156104b2575f5ffd5b505af11580156104c4573d5f5f3e3d5ffd5b50505050805f015f9054906101000a900473ffffffffffffffffffffffffffffffffffffffff1673ffffffffffffffffffffffffffffffffffffffff16827ffc31a7ddbe933aa6e67f3c98c183fbc87addd2b602fcfb10238d2f85cf0266178360020154604051610535919061125a565b60405180910390a3805f015f9054906101000a900473ffffffffffffffffffffffffffffffffffffffff1673ffffffffffffffffffffffffffffffffffffffff166108fc826002015490811502906040515f60405180830381858888f193505050501580156105a6573d5f5f3e3d5ffd5b505050565b60015f9054906101000a900473ffffffffffffffffffffffffffffffffffffffff1681565b5f5f9054906101000a900473ffffffffffffffffffffffffffffffffffffffff1681565b5f5f9054906101000a900473ffffffffffffffffffffffffffffffffffffffff1673ffffffffffffffffffffffffffffffffffffffff163373ffffffffffffffffffffffffffffffffffffffff1614610682576040517f08c379a0000000000000000000000000000000000000000000000000000000008152600401610679906112bd565b60405180910390fd5b5f60025f8381526020019081526020015f2090508060050160029054906101000a900460ff166106e7576040517f08c379a00000000000000000000000000000000000000000000000000000000081526004016106de90610f76565b60405180910390fd5b806005015f9054906101000a900460ff1615610738576040517f08c379a000000000000000000000000000000000000000000000000000000000815260040161072f90610fde565b60405180910390fd5b8060050160019054906101000a900460ff161561078a576040517f08c379a000000000000000000000000000000000000000000000000000000000815260040161078190611046565b60405180910390fd5b6001816005015f6101000a81548160ff02191690831515021790555060015f9054906101000a900473ffffffffffffffffffffffffffffffffffffffff1673ffffffffffffffffffffffffffffffffffffffff16636a726bad82600101600166038d7ea4c6800085600201546108009190611308565b6040518463ffffffff1660e01b815260040161081e93929190611338565b5f604051808303815f87803b158015610835575f5ffd5b505af1158015610847573d5f5f3e3d5ffd5b50505050817f1a35166561e0ae158ac1278d27d7e469ba491b4dfd813baaaad0fd2c72aa63a0826001018360020154604051610884929190611374565b60405180910390a25f5f9054906101000a900473ffffffffffffffffffffffffffffffffffffffff1673ffffffffffffffffffffffffffffffffffffffff166108fc826002015490811502906040515f60405180830381858888f193505050501580156108f3573d5f5f3e3d5ffd5b505050565b5f341161093a576040517f08c379a0000000000000000000000000000000000000000000000000000000008152600401610931906113ec565b60405180910390fd5b60025f8581526020019081526020015f2060050160029054906101000a900460ff161561099c576040517f08c379a000000000000000000000000000000000000000000000000000000000815260040161099390611454565b60405180910390fd5b6040518061010001604052803373ffffffffffffffffffffffffffffffffffffffff16815260200184848080601f0160208091040260200160405190810160405280939291908181526020018383808284375f81840152601f19601f8201169050808301925050505050505081526020013481526020014281526020018281526020015f151581526020015f151581526020016001151581525060025f8681526020019081526020015f205f820151815f015f6101000a81548173ffffffffffffffffffffffffffffffffffffffff021916908373ffffffffffffffffffffffffffffffffffffffff1602179055506020820151816001019081610aa09190611635565b5060408201518160020155606082015181600301556080820151816004015560a0820151816005015f6101000a81548160ff02191690831515021790555060c08201518160050160016101000a81548160ff02191690831515021790555060e08201518160050160026101000a81548160ff0219169083151502179055509050503373ffffffffffffffffffffffffffffffffffffffff16847f68eb0a5e3cb43b7d36ee99cfba89cbe5d1c7dc0725c8bca24971ca00d6b60a1785853486604051610b6e949392919061173e565b60405180910390a350505050565b5f5ffd5b5f5ffd5b5f819050919050565b610b9681610b84565b8114610ba0575f5ffd5b50565b5f81359050610bb181610b8d565b92915050565b5f60208284031215610bcc57610bcb610b7c565b5b5f610bd984828501610ba3565b91505092915050565b5f73ffffffffffffffffffffffffffffffffffffffff82169050919050565b5f610c0b82610be2565b9050919050565b610c1b81610c01565b82525050565b5f81519050919050565b5f82825260208201905092915050565b8281835e5f83830152505050565b5f601f19601f8301169050919050565b5f610c6382610c21565b610c6d8185610c2b565b9350610c7d818560208601610c3b565b610c8681610c49565b840191505092915050565b5f819050919050565b610ca381610c91565b82525050565b5f8115159050919050565b610cbd81610ca9565b82525050565b5f61010082019050610cd75f83018b610c12565b8181036020830152610ce9818a610c59565b9050610cf86040830189610c9a565b610d056060830188610c9a565b610d126080830187610c9a565b610d1f60a0830186610cb4565b610d2c60c0830185610cb4565b610d3960e0830184610cb4565b9998505050505050505050565b5f819050919050565b5f610d69610d64610d5f84610be2565b610d46565b610be2565b9050919050565b5f610d7a82610d4f565b9050919050565b5f610d8b82610d70565b9050919050565b610d9b81610d81565b82525050565b5f602082019050610db45f830184610d92565b92915050565b5f602082019050610dcd5f830184610c12565b92915050565b5f5ffd5b5f5ffd5b5f5ffd5b5f5f83601f840112610df457610df3610dd3565b5b8235905067ffffffffffffffff811115610e1157610e10610dd7565b5b602083019150836001820283011115610e2d57610e2c610ddb565b5b9250929050565b610e3d81610c91565b8114610e47575f5ffd5b50565b5f81359050610e5881610e34565b92915050565b5f5f5f5f60608587031215610e7657610e75610b7c565b5b5f610e8387828801610ba3565b945050602085013567ffffffffffffffff811115610ea457610ea3610b80565b5b610eb087828801610ddf565b93509350506040610ec387828801610e4a565b91505092959194509250565b7f4e487b71000000000000000000000000000000000000000000000000000000005f52602260045260245ffd5b5f6002820490506001821680610f1357607f821691505b602082108103610f2657610f25610ecf565b5b50919050565b7f457363726f7720646f6573206e6f7420657869737400000000000000000000005f82015250565b5f610f60601583610c2b565b9150610f6b82610f2c565b602082019050919050565b5f6020820190508181035f830152610f8d81610f54565b9050919050565b7f416c72656164792072656c6561736564000000000000000000000000000000005f82015250565b5f610fc8601083610c2b565b9150610fd382610f94565b602082019050919050565b5f6020820190508181035f830152610ff581610fbc565b9050919050565b7f416c726561647920726566756e646564000000000000000000000000000000005f82015250565b5f611030601083610c2b565b915061103b82610ffc565b602082019050919050565b5f6020820190508181035f83015261105d81611024565b9050919050565b7f4e487b71000000000000000000000000000000000000000000000000000000005f52601160045260245ffd5b5f61109b82610c91565b91506110a683610c91565b92508282019050808211156110be576110bd611064565b5b92915050565b7f43616e6e6f7420726566756e6420796574206f72206e6f7420617574686f72695f8201527f7a65640000000000000000000000000000000000000000000000000000000000602082015250565b5f61111e602383610c2b565b9150611129826110c4565b604082019050919050565b5f6020820190508181035f83015261114b81611112565b9050919050565b5f819050815f5260205f209050919050565b5f815461117081610efc565b61117a8186610c2b565b9450600182165f811461119457600181146111aa576111dc565b60ff1983168652811515602002860193506111dc565b6111b385611152565b5f5b838110156111d4578154818901526001820191506020810190506111b5565b808801955050505b50505092915050565b5f819050919050565b5f6112086112036111fe846111e5565b610d46565b610c91565b9050919050565b611218816111ee565b82525050565b5f6060820190508181035f8301526112368186611164565b90506112456020830185610cb4565b611252604083018461120f565b949350505050565b5f60208201905061126d5f830184610c9a565b92915050565b7f4f6e6c79206f776e65722063616e2063616c6c000000000000000000000000005f82015250565b5f6112a7601383610c2b565b91506112b282611273565b602082019050919050565b5f6020820190508181035f8301526112d48161129b565b9050919050565b7f4e487b71000000000000000000000000000000000000000000000000000000005f52601260045260245ffd5b5f61131282610c91565b915061131d83610c91565b92508261132d5761132c6112db565b5b828204905092915050565b5f6060820190508181035f8301526113508186611164565b905061135f6020830185610cb4565b61136c6040830184610c9a565b949350505050565b5f6040820190508181035f83015261138c8185611164565b905061139b6020830184610c9a565b9392505050565b7f4d757374206c6f636b206e6f6e2d7a65726f20616d6f756e74000000000000005f82015250565b5f6113d6601983610c2b565b91506113e1826113a2565b602082019050919050565b5f6020820190508181035f830152611403816113ca565b9050919050565b7f457363726f7720666f72207461736b496420616c7265616479206578697374735f82015250565b5f61143e602083610c2b565b91506114498261140a565b602082019050919050565b5f6020820190508181035f83015261146b81611432565b9050919050565b7f4e487b71000000000000000000000000000000000000000000000000000000005f52604160045260245ffd5b5f6020601f8301049050919050565b5f82821b905092915050565b5f600883026114e97fffffffffffffffffffffffffffffffffffffffffffffffffffffffffffffffff826114ae565b6114f386836114ae565b95508019841693508086168417925050509392505050565b5f61152561152061151b84610c91565b610d46565b610c91565b9050919050565b5f819050919050565b61153e8361150b565b61155261154a8261152c565b8484546114ba565b825550505050565b5f5f905090565b61156961155a565b611574818484611535565b505050565b5f5b8281101561159a5761158f5f828401611561565b60018101905061157b565b505050565b601f8211156115ed57828211156115ec576115b981611152565b6115c28361149f565b6115cb8561149f565b60208610156115d8575f90505b8083016115e782840382611579565b505050505b5b505050565b5f82821c905092915050565b5f61160d5f19846008026115f2565b1980831691505092915050565b5f61162583836115fe565b9150826002028217905092915050565b61163e82610c21565b67ffffffffffffffff81111561165757611656611472565b5b6116618254610efc565b61166c82828561159f565b5f60209050601f83116001811461169d575f841561168b578287015190505b611695858261161a565b8655506116fc565b601f1984166116ab86611152565b5f5b828110156116d2578489015182556001820191506020850194506020810190506116ad565b868310156116ef57848901516116eb601f8916826115fe565b8355505b6001600288020188555050505b505050505050565b828183375f83830152505050565b5f61171d8385610c2b565b935061172a838584611704565b61173383610c49565b840190509392505050565b5f6060820190508181035f830152611757818688611712565b90506117666020830185610c9a565b6117736040830184610c9a565b9594505050505056fea2646970667358221220e9bd4ecd276d9d2c4f879d82c1a70771eeaf6c21c911538eb28b2b05e382b94064736f6c63430008230033","linkReferences":{}},"methodIdentifiers":{"createEscrow(bytes32,string,uint256)":"cefc8033","escrows(bytes32)":"2d83549c","owner()":"8da5cb5b","refundEscrow(bytes32)":"47aed508","releaseEscrow(bytes32)":"bf89fc61","reputationContract()":"87bc1425"},"id":1}