{"abi":[{"type":"constructor","inputs":[],"stateMutability":"nonpayable"},{"type":"function","name":"getIntent","inputs":[{"name":"intentId","type":"bytes32","internalType":"bytes32"}],"outputs":[{"name":"userWallet","type":"address","internalType":"address"},{"name":"intentHash","type":"bytes32","internalType":"bytes32"},{"name":"status","type":"string","internalType":"string"},{"name":"timestamp","type":"uint256","internalType":"uint256"},{"name":"exists","type":"bool","internalType":"bool"}],"stateMutability":"view"},{"type":"function","name":"owner","inputs":[],"outputs":[{"name":"","type":"address","internalType":"address"}],"stateMutability":"view"},{"type":"function","name":"recordIntent","inputs":[{"name":"intentId","type":"bytes32","internalType":"bytes32"},{"name":"userWallet","type":"address","internalType":"address"},{"name":"intentHash","type":"bytes32","internalType":"bytes32"},{"name":"status","type":"string","internalType":"string"}],"outputs":[],"stateMutability":"nonpayable"},{"type":"function","name":"updateIntentStatus","inputs":[{"name":"intentId","type":"bytes32","internalType":"bytes32"},{"name":"newStatus","type":"string","internalType":"string"}],"outputs":[],"stateMutability":"nonpayable"},{"type":"event","name":"IntentRecorded","inputs":[{"name":"intentId","type":"bytes32","indexed":true,"internalType":"bytes32"},{"name":"userWallet","type":"address","indexed":true,"internalType":"address"},{"name":"intentHash","type":"bytes32","indexed":false,"internalType":"bytes32"},{"name":"status","type":"string","indexed":false,"internalType":"string"}],"anonymous":false},{"type":"event","name":"IntentStatusUpdated","inputs":[{"name":"intentId","type":"bytes32","indexed":true,"internalType":"bytes32"},{"name":"newStatus","type":"string","indexed":false,"internalType":"string"}],"anonymous":false}],"bytecode":{"object":"0x6080604052348015600e575f5ffd5b50335f5f6101000a81548173ffffffffffffffffffffffffffffffffffffffff021916908373ffffffffffffffffffffffffffffffffffffffff160217905550610f518061005b5f395ff3fe608060405234801561000f575f5ffd5b506004361061004a575f3560e01c806351ccc7d61461004e5780638da5cb5b1461006a578063988c1f6314610088578063f13c46aa146100a4575b5f5ffd5b61006860048036038101906100639190610739565b6100d8565b005b61007261036b565b60405161007f91906107cc565b60405180910390f35b6100a2600480360381019061009d91906107e5565b61038f565b005b6100be60048036038101906100b99190610842565b6104e0565b6040516100cf95949392919061091e565b60405180910390f35b5f5f9054906101000a900473ffffffffffffffffffffffffffffffffffffffff1673ffffffffffffffffffffffffffffffffffffffff163373ffffffffffffffffffffffffffffffffffffffff1614610166576040517f08c379a000000000000000000000000000000000000000000000000000000000815260040161015d906109c0565b60405180910390fd5b60015f8681526020019081526020015f206004015f9054906101000a900460ff16156101c7576040517f08c379a00000000000000000000000000000000000000000000000000000000081526004016101be90610a28565b60405180910390fd5b6040518060a001604052808573ffffffffffffffffffffffffffffffffffffffff16815260200184815260200183838080601f0160208091040260200160405190810160405280939291908181526020018383808284375f81840152601f19601f8201169050808301925050505050505081526020014281526020016001151581525060015f8781526020019081526020015f205f820151815f015f6101000a81548173ffffffffffffffffffffffffffffffffffffffff021916908373ffffffffffffffffffffffffffffffffffffffff1602179055506020820151816001015560408201518160020190816102be9190610c81565b50606082015181600301556080820151816004015f6101000a81548160ff021916908315150217905550905050600285908060018154018082558091505060019003905f5260205f20015f90919091909150558373ffffffffffffffffffffffffffffffffffffffff16857fdbbe2619ba182d92df45bc744bb16e47f34240df8dc82405756626cdbaadbae785858560405161035c93929190610d8a565b60405180910390a35050505050565b5f5f9054906101000a900473ffffffffffffffffffffffffffffffffffffffff1681565b5f5f9054906101000a900473ffffffffffffffffffffffffffffffffffffffff1673ffffffffffffffffffffffffffffffffffffffff163373ffffffffffffffffffffffffffffffffffffffff161461041d576040517f08c379a0000000000000000000000000000000000000000000000000000000008152600401610414906109c0565b60405180910390fd5b60015f8481526020019081526020015f206004015f9054906101000a900460ff1661047d576040517f08c379a000000000000000000000000000000000000000000000000000000000815260040161047490610e04565b60405180910390fd5b818160015f8681526020019081526020015f2060020191826104a0929190610e2c565b50827f23f93cd6119d4bf819cf5ea3876f4f66f0d36dcb75445750cca1b719e002d28d83836040516104d3929190610ef9565b60405180910390a2505050565b5f5f60605f5f5f60015f8881526020019081526020015f206040518060a00160405290815f82015f9054906101000a900473ffffffffffffffffffffffffffffffffffffffff1673ffffffffffffffffffffffffffffffffffffffff1673ffffffffffffffffffffffffffffffffffffffff1681526020016001820154815260200160028201805461057190610aa0565b80601f016020809104026020016040519081016040528092919081815260200182805461059d90610aa0565b80156105e85780601f106105bf576101008083540402835291602001916105e8565b820191905f5260205f20905b8154815290600101906020018083116105cb57829003601f168201915b5050505050815260200160038201548152602001600482015f9054906101000a900460ff1615151515815250509050805f01518160200151826040015183606001518460800151955095509550955095505091939590929450565b5f5ffd5b5f5ffd5b5f819050919050565b61065d8161064b565b8114610667575f5ffd5b50565b5f8135905061067881610654565b92915050565b5f73ffffffffffffffffffffffffffffffffffffffff82169050919050565b5f6106a78261067e565b9050919050565b6106b78161069d565b81146106c1575f5ffd5b50565b5f813590506106d2816106ae565b92915050565b5f5ffd5b5f5ffd5b5f5ffd5b5f5f83601f8401126106f9576106f86106d8565b5b8235905067ffffffffffffffff811115610716576107156106dc565b5b602083019150836001820283011115610732576107316106e0565b5b9250929050565b5f5f5f5f5f6080868803121561075257610751610643565b5b5f61075f8882890161066a565b9550506020610770888289016106c4565b94505060406107818882890161066a565b935050606086013567ffffffffffffffff8111156107a2576107a1610647565b5b6107ae888289016106e4565b92509250509295509295909350565b6107c68161069d565b82525050565b5f6020820190506107df5f8301846107bd565b92915050565b5f5f5f604084860312156107fc576107fb610643565b5b5f6108098682870161066a565b935050602084013567ffffffffffffffff81111561082a57610829610647565b5b610836868287016106e4565b92509250509250925092565b5f6020828403121561085757610856610643565b5b5f6108648482850161066a565b91505092915050565b6108768161064b565b82525050565b5f81519050919050565b5f82825260208201905092915050565b8281835e5f83830152505050565b5f601f19601f8301169050919050565b5f6108be8261087c565b6108c88185610886565b93506108d8818560208601610896565b6108e1816108a4565b840191505092915050565b5f819050919050565b6108fe816108ec565b82525050565b5f8115159050919050565b61091881610904565b82525050565b5f60a0820190506109315f8301886107bd565b61093e602083018761086d565b818103604083015261095081866108b4565b905061095f60608301856108f5565b61096c608083018461090f565b9695505050505050565b7f4f6e6c79206f776e65722063616e2063616c6c000000000000000000000000005f82015250565b5f6109aa601383610886565b91506109b582610976565b602082019050919050565b5f6020820190508181035f8301526109d78161099e565b9050919050565b7f496e74656e7420616c72656164792065786973747300000000000000000000005f82015250565b5f610a12601583610886565b9150610a1d826109de565b602082019050919050565b5f6020820190508181035f830152610a3f81610a06565b9050919050565b7f4e487b71000000000000000000000000000000000000000000000000000000005f52604160045260245ffd5b7f4e487b71000000000000000000000000000000000000000000000000000000005f52602260045260245ffd5b5f6002820490506001821680610ab757607f821691505b602082108103610aca57610ac9610a73565b5b50919050565b5f819050815f5260205f209050919050565b5f6020601f8301049050919050565b5f82821b905092915050565b5f60088302610b2c7fffffffffffffffffffffffffffffffffffffffffffffffffffffffffffffffff82610af1565b610b368683610af1565b95508019841693508086168417925050509392505050565b5f819050919050565b5f610b71610b6c610b67846108ec565b610b4e565b6108ec565b9050919050565b5f819050919050565b610b8a83610b57565b610b9e610b9682610b78565b848454610afd565b825550505050565b5f5f905090565b610bb5610ba6565b610bc0818484610b81565b505050565b5f5b82811015610be657610bdb5f828401610bad565b600181019050610bc7565b505050565b601f821115610c395782821115610c3857610c0581610ad0565b610c0e83610ae2565b610c1785610ae2565b6020861015610c24575f90505b808301610c3382840382610bc5565b505050505b5b505050565b5f82821c905092915050565b5f610c595f1984600802610c3e565b1980831691505092915050565b5f610c718383610c4a565b9150826002028217905092915050565b610c8a8261087c565b67ffffffffffffffff811115610ca357610ca2610a46565b5b610cad8254610aa0565b610cb8828285610beb565b5f60209050601f831160018114610ce9575f8415610cd7578287015190505b610ce18582610c66565b865550610d48565b601f198416610cf786610ad0565b5f5b82811015610d1e57848901518255600182019150602085019450602081019050610cf9565b86831015610d3b5784890151610d37601f891682610c4a565b8355505b6001600288020188555050505b505050505050565b828183375f83830152505050565b5f610d698385610886565b9350610d76838584610d50565b610d7f836108a4565b840190509392505050565b5f604082019050610d9d5f83018661086d565b8181036020830152610db0818486610d5e565b9050949350505050565b7f496e74656e7420646f6573206e6f7420657869737400000000000000000000005f82015250565b5f610dee601583610886565b9150610df982610dba565b602082019050919050565b5f6020820190508181035f830152610e1b81610de2565b9050919050565b5f82905092915050565b610e368383610e22565b67ffffffffffffffff811115610e4f57610e4e610a46565b5b610e598254610aa0565b610e64828285610beb565b5f601f831160018114610e91575f8415610e7f578287013590505b610e898582610c66565b865550610ef0565b601f198416610e9f86610ad0565b5f5b82811015610ec657848901358255600182019150602085019450602081019050610ea1565b86831015610ee35784890135610edf601f891682610c4a565b8355505b6001600288020188555050505b50505050505050565b5f6020820190508181035f830152610f12818486610d5e565b9050939250505056fea264697066735822122013fe96c46c8f006b34e019b22d88617ec5958391930647b860d0f9b8557926a964736f6c63430008230033","linkReferences":{}},"methodIdentifiers":{"getIntent(bytes32)":"f13c46aa","owner()":"8da5cb5b","recordIntent(bytes32,address,bytes32,string)":"51ccc7d6","updateIntentStatus(bytes32,string)":"988c1f63"},"id":2}